{
  "abi": [
    {
      "type": "function",
      "name": "UPGRADE_INTERFACE_VERSION",
      "inputs": [],
      "outputs": [
        {
          "name": "",
          "type": "string",
          "internalType": "string"
        }
      ],
      "stateMutability": "view"
    },
    {
      "type": "function",
      "name": "addCollateralTokens",
      "inputs": [
        {
          "name": "_tokens",
          "type": "address[]",
          "internalType": "address[]"
        },
        {
          "name": "_priceFeeds",
          "type": "address[]",
          "internalType": "address[]"
        }
      ],
      "outputs": [],
      "stateMutability": "nonpayable"
    },
    {
      "type": "function",
      "name": "addLoanableToken",
      "inputs": [
        {
          "name": "_token",
          "type": "address",
          "internalType": "address"
        },
        {
          "name": "_priceFeed",
          "type": "address",
          "internalType": "address"
        }
      ],
      "outputs": [],
      "stateMutability": "nonpayable"
    },
    {
      "type": "function",
      "name": "createLendingRequest",
      "inputs": [
        {
          "name": "_amount",
          "type": "uint256",
          "internalType": "uint256"
        },
        {
          "name": "_interest",
          "type": "uint8",
          "internalType": "uint8"
        },
        {
          "name": "_returnDate",
          "type": "uint256",
          "internalType": "uint256"
        },
        {
          "name": "_loanCurrency",
          "type": "address",
          "internalType": "address"
        }
      ],
      "outputs": [],
      "stateMutability": "nonpayable"
    },
    {
      "type": "function",
      "name": "depositCollateral",
      "inputs": [
        {
          "name": "_tokenCollateralAddress",
          "type": "address",
          "internalType": "address"
        },
        {
          "name": "_amountOfCollateral",
          "type": "uint256",
          "internalType": "uint256"
        }
      ],
      "outputs": [],
      "stateMutability": "nonpayable"
    },
    {
      "type": "function",
      "name": "getAccountCollateralValue",
      "inputs": [
        {
          "name": "_user",
          "type": "address",
          "internalType": "address"
        }
      ],
      "outputs": [
        {
          "name": "_totalCollateralValueInUsd",
          "type": "uint256",
          "internalType": "uint256"
        }
      ],
      "stateMutability": "view"
    },
    {
      "type": "function",
      "name": "getAllCollateralToken",
      "inputs": [],
      "outputs": [
        {
          "name": "",
          "type": "address[]",
          "internalType": "address[]"
        }
      ],
      "stateMutability": "view"
    },
    {
      "type": "function",
      "name": "getAllOfferForUser",
      "inputs": [
        {
          "name": "_borrower",
          "type": "address",
          "internalType": "address"
        },
        {
          "name": "_requestId",
          "type": "uint96",
          "internalType": "uint96"
        }
      ],
      "outputs": [
        {
          "name": "",
          "type": "tuple[]",
          "internalType": "struct Protocol.Offer[]",
          "components": [
            {
              "name": "offerId",
              "type": "uint256",
              "internalType": "uint256"
            },
            {
              "name": "tokenAddr",
              "type": "address",
              "internalType": "address"
            },
            {
              "name": "author",
              "type": "address",
              "internalType": "address"
            },
            {
              "name": "amount",
              "type": "uint256",
              "internalType": "uint256"
            },
            {
              "name": "interest",
              "type": "uint8",
              "internalType": "uint8"
            },
            {
              "name": "returnDate",
              "type": "uint256",
              "internalType": "uint256"
            },
            {
              "name": "offerStatus",
              "type": "uint8",
              "internalType": "enum Protocol.OfferStatus"
            }
          ]
        }
      ],
      "stateMutability": "view"
    },
    {
      "type": "function",
      "name": "getAllRequest",
      "inputs": [],
      "outputs": [
        {
          "name": "",
          "type": "tuple[]",
          "internalType": "struct Protocol.Request[]",
          "components": [
            {
              "name": "requestId",
              "type": "uint96",
              "internalType": "uint96"
            },
            {
              "name": "author",
              "type": "address",
              "internalType": "address"
            },
            {
              "name": "amount",
              "type": "uint256",
              "internalType": "uint256"
            },
            {
              "name": "interest",
              "type": "uint8",
              "internalType": "uint8"
            },
            {
              "name": "_totalRepayment",
              "type": "uint256",
              "internalType": "uint256"
            },
            {
              "name": "offer",
              "type": "tuple[]",
              "internalType": "struct Protocol.Offer[]",
              "components": [
                {
                  "name": "offerId",
                  "type": "uint256",
                  "internalType": "uint256"
                },
                {
                  "name": "tokenAddr",
                  "type": "address",
                  "internalType": "address"
                },
                {
                  "name": "author",
                  "type": "address",
                  "internalType": "address"
                },
                {
                  "name": "amount",
                  "type": "uint256",
                  "internalType": "uint256"
                },
                {
                  "name": "interest",
                  "type": "uint8",
                  "internalType": "uint8"
                },
                {
                  "name": "returnDate",
                  "type": "uint256",
                  "internalType": "uint256"
                },
                {
                  "name": "offerStatus",
                  "type": "uint8",
                  "internalType": "enum Protocol.OfferStatus"
                }
              ]
            },
            {
              "name": "returnDate",
              "type": "uint256",
              "internalType": "uint256"
            },
            {
              "name": "lender",
              "type": "address",
              "internalType": "address"
            },
            {
              "name": "loanRequestAddr",
              "type": "address",
              "internalType": "address"
            },
            {
              "name": "status",
              "type": "uint8",
              "internalType": "enum Protocol.Status"
            }
          ]
        }
      ],
      "stateMutability": "view"
    },
    {
      "type": "function",
      "name": "getLoanableAssets",
      "inputs": [],
      "outputs": [
        {
          "name": "_assets",
          "type": "address[]",
          "internalType": "address[]"
        }
      ],
      "stateMutability": "view"
    },
    {
      "type": "function",
      "name": "getRequestById",
      "inputs": [
        {
          "name": "_requestId",
          "type": "uint96",
          "internalType": "uint96"
        }
      ],
      "outputs": [
        {
          "name": "",
          "type": "tuple",
          "internalType": "struct Protocol.Request",
          "components": [
            {
              "name": "requestId",
              "type": "uint96",
              "internalType": "uint96"
            },
            {
              "name": "author",
              "type": "address",
              "internalType": "address"
            },
            {
              "name": "amount",
              "type": "uint256",
              "internalType": "uint256"
            },
            {
              "name": "interest",
              "type": "uint8",
              "internalType": "uint8"
            },
            {
              "name": "_totalRepayment",
              "type": "uint256",
              "internalType": "uint256"
            },
            {
              "name": "offer",
              "type": "tuple[]",
              "internalType": "struct Protocol.Offer[]",
              "components": [
                {
                  "name": "offerId",
                  "type": "uint256",
                  "internalType": "uint256"
                },
                {
                  "name": "tokenAddr",
                  "type": "address",
                  "internalType": "address"
                },
                {
                  "name": "author",
                  "type": "address",
                  "internalType": "address"
                },
                {
                  "name": "amount",
                  "type": "uint256",
                  "internalType": "uint256"
                },
                {
                  "name": "interest",
                  "type": "uint8",
                  "internalType": "uint8"
                },
                {
                  "name": "returnDate",
                  "type": "uint256",
                  "internalType": "uint256"
                },
                {
                  "name": "offerStatus",
                  "type": "uint8",
                  "internalType": "enum Protocol.OfferStatus"
                }
              ]
            },
            {
              "name": "returnDate",
              "type": "uint256",
              "internalType": "uint256"
            },
            {
              "name": "lender",
              "type": "address",
              "internalType": "address"
            },
            {
              "name": "loanRequestAddr",
              "type": "address",
              "internalType": "address"
            },
            {
              "name": "status",
              "type": "uint8",
              "internalType": "enum Protocol.Status"
            }
          ]
        }
      ],
      "stateMutability": "view"
    },
    {
      "type": "function",
      "name": "getUsdValue",
      "inputs": [
        {
          "name": "_token",
          "type": "address",
          "internalType": "address"
        },
        {
          "name": "_amount",
          "type": "uint256",
          "internalType": "uint256"
        }
      ],
      "outputs": [
        {
          "name": "",
          "type": "uint256",
          "internalType": "uint256"
        }
      ],
      "stateMutability": "view"
    },
    {
      "type": "function",
      "name": "getUserEmail",
      "inputs": [
        {
          "name": "_user",
          "type": "address",
          "internalType": "address"
        }
      ],
      "outputs": [
        {
          "name": "",
          "type": "string",
          "internalType": "string"
        }
      ],
      "stateMutability": "view"
    },
    {
      "type": "function",
      "name": "getUserRequest",
      "inputs": [
        {
          "name": "_user",
          "type": "address",
          "internalType": "address"
        },
        {
          "name": "_requestId",
          "type": "uint96",
          "internalType": "uint96"
        }
      ],
      "outputs": [
        {
          "name": "",
          "type": "tuple",
          "internalType": "struct Protocol.Request",
          "components": [
            {
              "name": "requestId",
              "type": "uint96",
              "internalType": "uint96"
            },
            {
              "name": "author",
              "type": "address",
              "internalType": "address"
            },
            {
              "name": "amount",
              "type": "uint256",
              "internalType": "uint256"
            },
            {
              "name": "interest",
              "type": "uint8",
              "internalType": "uint8"
            },
            {
              "name": "_totalRepayment",
              "type": "uint256",
              "internalType": "uint256"
            },
            {
              "name": "offer",
              "type": "tuple[]",
              "internalType": "struct Protocol.Offer[]",
              "components": [
                {
                  "name": "offerId",
                  "type": "uint256",
                  "internalType": "uint256"
                },
                {
                  "name": "tokenAddr",
                  "type": "address",
                  "internalType": "address"
                },
                {
                  "name": "author",
                  "type": "address",
                  "internalType": "address"
                },
                {
                  "name": "amount",
                  "type": "uint256",
                  "internalType": "uint256"
                },
                {
                  "name": "interest",
                  "type": "uint8",
                  "internalType": "uint8"
                },
                {
                  "name": "returnDate",
                  "type": "uint256",
                  "internalType": "uint256"
                },
                {
                  "name": "offerStatus",
                  "type": "uint8",
                  "internalType": "enum Protocol.OfferStatus"
                }
              ]
            },
            {
              "name": "returnDate",
              "type": "uint256",
              "internalType": "uint256"
            },
            {
              "name": "lender",
              "type": "address",
              "internalType": "address"
            },
            {
              "name": "loanRequestAddr",
              "type": "address",
              "internalType": "address"
            },
            {
              "name": "status",
              "type": "uint8",
              "internalType": "enum Protocol.Status"
            }
          ]
        }
      ],
      "stateMutability": "view"
    },
    {
      "type": "function",
      "name": "get_gitCoinPoint",
      "inputs": [
        {
          "name": "_user",
          "type": "address",
          "internalType": "address"
        }
      ],
      "outputs": [
        {
          "name": "_score",
          "type": "uint256",
          "internalType": "uint256"
        }
      ],
      "stateMutability": "view"
    },
    {
      "type": "function",
      "name": "gets_addressToCollateralDeposited",
      "inputs": [
        {
          "name": "_sender",
          "type": "address",
          "internalType": "address"
        },
        {
          "name": "_tokenAddr",
          "type": "address",
          "internalType": "address"
        }
      ],
      "outputs": [
        {
          "name": "",
          "type": "uint256",
          "internalType": "uint256"
        }
      ],
      "stateMutability": "view"
    },
    {
      "type": "function",
      "name": "initialize",
      "inputs": [
        {
          "name": "_initialOwner",
          "type": "address",
          "internalType": "address"
        },
        {
          "name": "_tokens",
          "type": "address[]",
          "internalType": "address[]"
        },
        {
          "name": "_priceFeeds",
          "type": "address[]",
          "internalType": "address[]"
        },
        {
          "name": "_peerAddress",
          "type": "address",
          "internalType": "address"
        }
      ],
      "outputs": [],
      "stateMutability": "nonpayable"
    },
    {
      "type": "function",
      "name": "isVerified",
      "inputs": [
        {
          "name": "_user",
          "type": "address",
          "internalType": "address"
        }
      ],
      "outputs": [
        {
          "name": "",
          "type": "bool",
          "internalType": "bool"
        }
      ],
      "stateMutability": "view"
    },
    {
      "type": "function",
      "name": "makeLendingOffer",
      "inputs": [
        {
          "name": "_borrower",
          "type": "address",
          "internalType": "address"
        },
        {
          "name": "_requestId",
          "type": "uint96",
          "internalType": "uint96"
        },
        {
          "name": "_amount",
          "type": "uint256",
          "internalType": "uint256"
        },
        {
          "name": "_interest",
          "type": "uint8",
          "internalType": "uint8"
        },
        {
          "name": "_returnedDate",
          "type": "uint256",
          "internalType": "uint256"
        },
        {
          "name": "_tokenAddress",
          "type": "address",
          "internalType": "address"
        }
      ],
      "outputs": [],
      "stateMutability": "nonpayable"
    },
    {
      "type": "function",
      "name": "owner",
      "inputs": [],
      "outputs": [
        {
          "name": "",
          "type": "address",
          "internalType": "address"
        }
      ],
      "stateMutability": "view"
    },
    {
      "type": "function",
      "name": "proxiableUUID",
      "inputs": [],
      "outputs": [
        {
          "name": "",
          "type": "bytes32",
          "internalType": "bytes32"
        }
      ],
      "stateMutability": "view"
    },
    {
      "type": "function",
      "name": "removeCollateralTokens",
      "inputs": [
        {
          "name": "_tokens",
          "type": "address[]",
          "internalType": "address[]"
        }
      ],
      "outputs": [],
      "stateMutability": "nonpayable"
    },
    {
      "type": "function",
      "name": "renounceOwnership",
      "inputs": [],
      "outputs": [],
      "stateMutability": "nonpayable"
    },
    {
      "type": "function",
      "name": "repayLoan",
      "inputs": [
        {
          "name": "_requestId",
          "type": "uint96",
          "internalType": "uint96"
        },
        {
          "name": "_amount",
          "type": "uint256",
          "internalType": "uint256"
        }
      ],
      "outputs": [],
      "stateMutability": "nonpayable"
    },
    {
      "type": "function",
      "name": "respondToLendingOffer",
      "inputs": [
        {
          "name": "_requestId",
          "type": "uint96",
          "internalType": "uint96"
        },
        {
          "name": "_offerId",
          "type": "uint96",
          "internalType": "uint96"
        },
        {
          "name": "_status",
          "type": "uint8",
          "internalType": "enum Protocol.OfferStatus"
        }
      ],
      "outputs": [],
      "stateMutability": "nonpayable"
    },
    {
      "type": "function",
      "name": "serviceRequest",
      "inputs": [
        {
          "name": "_borrower",
          "type": "address",
          "internalType": "address"
        },
        {
          "name": "_requestId",
          "type": "uint8",
          "internalType": "uint8"
        },
        {
          "name": "_tokenAddress",
          "type": "address",
          "internalType": "address"
        }
      ],
      "outputs": [],
      "stateMutability": "nonpayable"
    },
    {
      "type": "function",
      "name": "transferOwnership",
      "inputs": [
        {
          "name": "newOwner",
          "type": "address",
          "internalType": "address"
        }
      ],
      "outputs": [],
      "stateMutability": "nonpayable"
    },
    {
      "type": "function",
      "name": "updateEmail",
      "inputs": [
        {
          "name": "_user",
          "type": "address",
          "internalType": "address"
        },
        {
          "name": "_email",
          "type": "string",
          "internalType": "string"
        },
        {
          "name": "_status",
          "type": "bool",
          "internalType": "bool"
        }
      ],
      "outputs": [],
      "stateMutability": "nonpayable"
    },
    {
      "type": "function",
      "name": "updateGPScore",
      "inputs": [
        {
          "name": "_user",
          "type": "address",
          "internalType": "address"
        },
        {
          "name": "_score",
          "type": "uint256",
          "internalType": "uint256"
        }
      ],
      "outputs": [],
      "stateMutability": "nonpayable"
    },
    {
      "type": "function",
      "name": "upgradeToAndCall",
      "inputs": [
        {
          "name": "newImplementation",
          "type": "address",
          "internalType": "address"
        },
        {
          "name": "data",
          "type": "bytes",
          "internalType": "bytes"
        }
      ],
      "outputs": [],
      "stateMutability": "payable"
    },
    {
      "type": "function",
      "name": "withdrawCollateral",
      "inputs": [
        {
          "name": "_tokenCollateralAddress",
          "type": "address",
          "internalType": "address"
        },
        {
          "name": "_amount",
          "type": "uint256",
          "internalType": "uint256"
        }
      ],
      "outputs": [],
      "stateMutability": "nonpayable"
    },
    {
      "type": "event",
      "name": "CollateralDeposited",
      "inputs": [
        {
          "name": "_sender",
          "type": "address",
          "indexed": true,
          "internalType": "address"
        },
        {
          "name": "_token",
          "type": "address",
          "indexed": true,
          "internalType": "address"
        },
        {
          "name": "_value",
          "type": "uint256",
          "indexed": false,
          "internalType": "uint256"
        }
      ],
      "anonymous": false
    },
    {
      "type": "event",
      "name": "CollateralWithdrawn",
      "inputs": [
        {
          "name": "sender",
          "type": "address",
          "indexed": true,
          "internalType": "address"
        },
        {
          "name": "_tokenCollateralAddress",
          "type": "address",
          "indexed": true,
          "internalType": "address"
        },
        {
          "name": "_amount",
          "type": "uint256",
          "indexed": false,
          "internalType": "uint256"
        }
      ],
      "anonymous": false
    },
    {
      "type": "event",
      "name": "Initialized",
      "inputs": [
        {
          "name": "version",
          "type": "uint64",
          "indexed": false,
          "internalType": "uint64"
        }
      ],
      "anonymous": false
    },
    {
      "type": "event",
      "name": "LoanRepayment",
      "inputs": [
        {
          "name": "sender",
          "type": "address",
          "indexed": true,
          "internalType": "address"
        },
        {
          "name": "id",
          "type": "uint96",
          "indexed": false,
          "internalType": "uint96"
        },
        {
          "name": "amount",
          "type": "uint256",
          "indexed": false,
          "internalType": "uint256"
        }
      ],
      "anonymous": false
    },
    {
      "type": "event",
      "name": "OfferAccepted",
      "inputs": [
        {
          "name": "sender",
          "type": "address",
          "indexed": true,
          "internalType": "address"
        },
        {
          "name": "id",
          "type": "uint96",
          "indexed": false,
          "internalType": "uint96"
        },
        {
          "name": "amount",
          "type": "uint256",
          "indexed": true,
          "internalType": "uint256"
        }
      ],
      "anonymous": false
    },
    {
      "type": "event",
      "name": "OfferCreated",
      "inputs": [
        {
          "name": "_lender",
          "type": "address",
          "indexed": true,
          "internalType": "address"
        },
        {
          "name": "indexed_tokenAddress",
          "type": "address",
          "indexed": false,
          "internalType": "address"
        },
        {
          "name": "_amount",
          "type": "uint256",
          "indexed": false,
          "internalType": "uint256"
        },
        {
          "name": "_requestId",
          "type": "uint96",
          "indexed": true,
          "internalType": "uint96"
        }
      ],
      "anonymous": false
    },
    {
      "type": "event",
      "name": "OwnershipTransferred",
      "inputs": [
        {
          "name": "previousOwner",
          "type": "address",
          "indexed": true,
          "internalType": "address"
        },
        {
          "name": "newOwner",
          "type": "address",
          "indexed": true,
          "internalType": "address"
        }
      ],
      "anonymous": false
    },
    {
      "type": "event",
      "name": "RequestCreated",
      "inputs": [
        {
          "name": "_borrower",
          "type": "address",
          "indexed": true,
          "internalType": "address"
        },
        {
          "name": "requestId",
          "type": "uint96",
          "indexed": true,
          "internalType": "uint96"
        },
        {
          "name": "_amount",
          "type": "uint256",
          "indexed": false,
          "internalType": "uint256"
        },
        {
          "name": "_interest",
          "type": "uint8",
          "indexed": false,
          "internalType": "uint8"
        }
      ],
      "anonymous": false
    },
    {
      "type": "event",
      "name": "RespondToLendingOffer",
      "inputs": [
        {
          "name": "sender",
          "type": "address",
          "indexed": true,
          "internalType": "address"
        },
        {
          "name": "_offerId",
          "type": "uint256",
          "indexed": true,
          "internalType": "uint256"
        },
        {
          "name": "_status",
          "type": "uint8",
          "indexed": false,
          "internalType": "uint8"
        },
        {
          "name": "_offerStatus",
          "type": "uint8",
          "indexed": false,
          "internalType": "uint8"
        }
      ],
      "anonymous": false
    },
    {
      "type": "event",
      "name": "ServiceRequestSuccessful",
      "inputs": [
        {
          "name": "sender",
          "type": "address",
          "indexed": true,
          "internalType": "address"
        },
        {
          "name": "_borrower",
          "type": "address",
          "indexed": true,
          "internalType": "address"
        },
        {
          "name": "_requestId",
          "type": "uint8",
          "indexed": false,
          "internalType": "uint8"
        },
        {
          "name": "amount",
          "type": "uint256",
          "indexed": false,
          "internalType": "uint256"
        }
      ],
      "anonymous": false
    },
    {
      "type": "event",
      "name": "UpdateLoanableToken",
      "inputs": [
        {
          "name": "_token",
          "type": "address",
          "indexed": true,
          "internalType": "address"
        },
        {
          "name": "_priceFeed",
          "type": "address",
          "indexed": false,
          "internalType": "address"
        },
        {
          "name": "sender",
          "type": "address",
          "indexed": true,
          "internalType": "address"
        }
      ],
      "anonymous": false
    },
    {
      "type": "event",
      "name": "UpdatedCollateralTokens",
      "inputs": [
        {
          "name": "sender",
          "type": "address",
          "indexed": true,
          "internalType": "address"
        },
        {
          "name": "newTokensCount",
          "type": "uint8",
          "indexed": false,
          "internalType": "uint8"
        }
      ],
      "anonymous": false
    },
    {
      "type": "event",
      "name": "Upgraded",
      "inputs": [
        {
          "name": "implementation",
          "type": "address",
          "indexed": true,
          "internalType": "address"
        }
      ],
      "anonymous": false
    },
    {
      "type": "error",
      "name": "AddressEmptyCode",
      "inputs": [
        {
          "name": "target",
          "type": "address",
          "internalType": "address"
        }
      ]
    },
    {
      "type": "error",
      "name": "ERC1967InvalidImplementation",
      "inputs": [
        {
          "name": "implementation",
          "type": "address",
          "internalType": "address"
        }
      ]
    },
    {
      "type": "error",
      "name": "ERC1967NonPayable",
      "inputs": []
    },
    {
      "type": "error",
      "name": "FailedInnerCall",
      "inputs": []
    },
    {
      "type": "error",
      "name": "InvalidInitialization",
      "inputs": []
    },
    {
      "type": "error",
      "name": "NotInitializing",
      "inputs": []
    },
    {
      "type": "error",
      "name": "OwnableInvalidOwner",
      "inputs": [
        {
          "name": "owner",
          "type": "address",
          "internalType": "address"
        }
      ]
    },
    {
      "type": "error",
      "name": "OwnableUnauthorizedAccount",
      "inputs": [
        {
          "name": "account",
          "type": "address",
          "internalType": "address"
        }
      ]
    },
    {
      "type": "error",
      "name": "Protocol__BreaksHealthFactor",
      "inputs": []
    },
    {
      "type": "error",
      "name": "Protocol__DateMustBeInFuture",
      "inputs": []
    },
    {
      "type": "error",
      "name": "Protocol__EmailNotVerified",
      "inputs": []
    },
    {
      "type": "error",
      "name": "Protocol__InsufficientAllowance",
      "inputs": []
    },
    {
      "type": "error",
      "name": "Protocol__InsufficientBalance",
      "inputs": []
    },
    {
      "type": "error",
      "name": "Protocol__InsufficientCollateral",
      "inputs": []
    },
    {
      "type": "error",
      "name": "Protocol__InsufficientCollateralDeposited",
      "inputs": []
    },
    {
      "type": "error",
      "name": "Protocol__InvalidAmount",
      "inputs": []
    },
    {
      "type": "error",
      "name": "Protocol__InvalidId",
      "inputs": []
    },
    {
      "type": "error",
      "name": "Protocol__InvalidToken",
      "inputs": []
    },
    {
      "type": "error",
      "name": "Protocol__MustBeMoreThanZero",
      "inputs": []
    },
    {
      "type": "error",
      "name": "Protocol__OfferNotOpen",
      "inputs": []
    },
    {
      "type": "error",
      "name": "Protocol__RequestNotOpen",
      "inputs": []
    },
    {
      "type": "error",
      "name": "Protocol__RequestNotServiced",
      "inputs": []
    },
    {
      "type": "error",
      "name": "Protocol__TokenNotAllowed",
      "inputs": []
    },
    {
      "type": "error",
      "name": "Protocol__TokenNotLoanable",
      "inputs": []
    },
    {
      "type": "error",
      "name": "Protocol__TransferFailed",
      "inputs": []
    },
    {
      "type": "error",
      "name": "Protocol__Unauthorized",
      "inputs": []
    },
    {
      "type": "error",
      "name": "Protocol__tokensAndPriceFeedsArrayMustBeSameLength",
      "inputs": []
    },
    {
      "type": "error",
      "name": "UUPSUnauthorizedCallContext",
      "inputs": []
    },
    {
      "type": "error",
      "name": "UUPSUnsupportedProxiableUUID",
      "inputs": [
        {
          "name": "slot",
          "type": "bytes32",
          "internalType": "bytes32"
        }
      ]
    }
  ],
  "bytecode": {
    "object": "0x60a06040523060805234801561001457600080fd5b5060805161441761003e600039600081816130110152818161303a015261317b01526144176000f3fe6080604052600436106101d75760003560e01c80637d1a445011610102578063bf34394311610095578063ecb0fe3811610064578063ecb0fe38146105e3578063f2cc0ba514610603578063f2fde38b1461063c578063f9f22ec21461065c57600080fd5b8063bf34394314610563578063c147a89214610583578063c660d112146105a3578063eb57a3f5146105c357600080fd5b8063a5d5db0c116100d1578063a5d5db0c146104aa578063ad3cb1cc146104ca578063b202dc20146104fb578063b9209e331461051057600080fd5b80637d1a4450146103f457806386f5483f146104145780638da5cb5b146104365780639480e9481461047d57600080fd5b806342e292c11161017a57806352d1902d1161014957806352d1902d1461037b578063545569ba1461039057806358944730146103b2578063715018a6146103df57600080fd5b806342e292c1146102d4578063480d4c87146102f45780634f1ef28614610314578063527ed1261461032757600080fd5b80631143e606116101b65780631143e606146102545780631308aedc14610274578063350c35e91461029457806341239496146102b457600080fd5b80620689e0146101dc57806302727e34146101fe578063065a1f8714610234575b600080fd5b3480156101e857600080fd5b506101fc6101f73660046138d4565b61067c565b005b34801561020a57600080fd5b5061021e610219366004613970565b61091c565b60405161022b9190613b37565b60405180910390f35b34801561024057600080fd5b506101fc61024f366004613bb0565b610d03565b34801561026057600080fd5b5061021e61026f366004613c26565b610d44565b34801561028057600080fd5b506101fc61028f366004613c6a565b610f04565b3480156102a057600080fd5b506101fc6102af366004613ca5565b6112a1565b3480156102c057600080fd5b506101fc6102cf366004613ccf565b61144f565b3480156102e057600080fd5b506101fc6102ef366004613ca5565b61181f565b34801561030057600080fd5b506101fc61030f366004613d12565b611846565b6101fc610322366004613d76565b6119af565b34801561033357600080fd5b5061036d610342366004613dce565b6001600160a01b03918216600090815260036020908152604080832093909416825291909152205490565b60405190815260200161022b565b34801561038757600080fd5b5061036d6119ce565b34801561039c57600080fd5b506103a56119eb565b60405161022b9190613df8565b3480156103be57600080fd5b506103d26103cd366004613c26565b611e06565b60405161022b9190613e5c565b3480156103eb57600080fd5b506101fc611f16565b34801561040057600080fd5b5061036d61040f366004613ea5565b611f2a565b34801561042057600080fd5b50610429611fa7565b60405161022b9190613ec0565b34801561044257600080fd5b507f9016d09d72d40fdae2fd8ceac6b6234c7706214fd39c1cd1e609a0528c199300546040516001600160a01b03909116815260200161022b565b34801561048957600080fd5b5061049d610498366004613ea5565b612009565b60405161022b9190613f25565b3480156104b657600080fd5b506101fc6104c5366004613ca5565b6120b5565b3480156104d657600080fd5b5061049d604051806040016040528060058152602001640352e302e360dc1b81525081565b34801561050757600080fd5b50610429612229565b34801561051c57600080fd5b5061055361052b366004613ea5565b6001600160a01b0316600090815260046020526040902060010154600160a01b900460ff1690565b604051901515815260200161022b565b34801561056f57600080fd5b506101fc61057e366004613f58565b612289565b34801561058f57600080fd5b506101fc61059e366004613fbe565b61260c565b3480156105af57600080fd5b5061036d6105be366004613ca5565b612845565b3480156105cf57600080fd5b506101fc6105de366004613dce565b612903565b3480156105ef57600080fd5b506101fc6105fe366004613fda565b6129bf565b34801561060f57600080fd5b5061036d61061e366004613ea5565b6001600160a01b031660009081526004602052604090206002015490565b34801561064857600080fd5b506101fc610657366004613ea5565b612bf9565b34801561066857600080fd5b506101fc61067736600461401a565b612c37565b7ff0c57e16840df040f15088dc2f81fe391c3923bec73e23a9662efc9c229c6a008054600160401b810460ff16159067ffffffffffffffff166000811580156106c25750825b905060008267ffffffffffffffff1660011480156106df5750303b155b9050811580156106ed575080155b1561070b5760405163f92ee8a960e01b815260040160405180910390fd5b845467ffffffffffffffff19166001178555831561073557845460ff60401b1916600160401b1785555b61073e89612e3a565b86518851146107605760405163082e439b60e31b815260040160405180910390fd5b60005b88518160ff1610156108af576001600260008b8460ff168151811061078a5761078a614057565b60200260200101516001600160a01b03166001600160a01b0316815260200190815260200160002060006101000a81548160ff021916908315150217905550878160ff16815181106107de576107de614057565b6020026020010151600160008b8460ff16815181106107ff576107ff614057565b60200260200101516001600160a01b03166001600160a01b0316815260200190815260200160002060006101000a8154816001600160a01b0302191690836001600160a01b031602179055506006898260ff168151811061086257610862614057565b60209081029190910181015182546001810184556000938452919092200180546001600160a01b0319166001600160a01b03909216919091179055806108a781614083565b915050610763565b50600080546001600160a01b0319166001600160a01b038816179055831561091157845460ff60401b19168555604051600181527fc7f505b2f371ae2175ee4913f4499e1f2633a7b5936321eed1cdaeb6115181d29060200160405180910390a15b505050505050505050565b61092461364a565b816001600160601b031660000361094e5760405163239de89960e11b815260040160405180910390fd5b6008546001600160601b038316106109795760405163239de89960e11b815260040160405180910390fd5b600060086109886001856140a2565b6001600160601b0316815481106109a1576109a1614057565b600091825260208083206040805161014081018252600890940290910180546001600160601b03811685526001600160a01b03600160601b9091041684840152600181015484830152600281015460ff166060850152600381015460808501526004810180548351818602810186019094528084529495919460a08701949192909184015b82821015610adc5760008481526020908190206040805160e081018252600786029092018054835260018101546001600160a01b03908116948401949094526002808201549094169183019190915260038101546060830152600481015460ff9081166080840152600582015460a084015260068201549293919260c0850192911690811115610ab857610ab861398b565b6002811115610ac957610ac961398b565b8152505081526020019060010190610a26565b505050908252506005820154602082015260068201546001600160a01b03908116604083015260078301549081166060830152608090910190600160a01b900460ff166002811115610b3057610b3061398b565b6002811115610b4157610b4161398b565b9052506020808201516001600160a01b0390811660009081526005835260408082206001600160601b03808a16845290855281832082516101408101845281549283168152600160601b90920490941681860152600184015481830152600284015460ff166060820152600384015460808201526004840180548351818802810188019094528084529697509295909460a08601939190879084015b82821015610c935760008481526020908190206040805160e081018252600786029092018054835260018101546001600160a01b03908116948401949094526002808201549094169183019190915260038101546060830152600481015460ff9081166080840152600582015460a084015260068201549293919260c0850192911690811115610c6f57610c6f61398b565b6002811115610c8057610c8061398b565b8152505081526020019060010190610bdd565b505050908252506005820154602082015260068201546001600160a01b03908116604083015260078301549081166060830152608090910190600160a01b900460ff166002811115610ce757610ce761398b565b6002811115610cf857610cf861398b565b905250949350505050565b6001600160a01b038316600090815260046020526040902060018101805460ff60a01b1916600160a01b84151502179055610d3e838261414d565b50505050565b610d4c61364a565b6001600160a01b0380841660009081526005602090815260408083206001600160601b03808816855290835281842082516101408101845281549283168152600160601b90920490951681840152600185015481830152600285015460ff1660608201526003850154608082015260048501805483518186028101860190945280845291959460a087019491929184015b82821015610e935760008481526020908190206040805160e081018252600786029092018054835260018101546001600160a01b03908116948401949094526002808201549094169183019190915260038101546060830152600481015460ff9081166080840152600582015460a084015260068201549293919260c0850192911690811115610e6f57610e6f61398b565b6002811115610e8057610e8061398b565b8152505081526020019060010190610ddd565b505050908252506005820154602082015260068201546001600160a01b03908116604083015260078301549081166060830152608090910190600160a01b900460ff166002811115610ee757610ee761398b565b6002811115610ef857610ef861398b565b90525090505b92915050565b610f0d84612e4b565b6001600160a01b03811660009081526002602052604090205460ff16610f46576040516356d7e0a760e11b815260040160405180910390fd5b610f4f33612e6c565b6000610f5b8286612845565b90506001811015610f7f57604051632894e1e760e11b815260040160405180910390fd5b6000610f8a33611f2a565b905060006064610f9b83605561420d565b610fa59190614224565b336000908152600460205260409020600301549091508190610fc8908590614246565b10610fe6576040516301401b1b60e61b815260040160405180910390fd5b600a54610ffd906001600160601b03166001614259565b600a80546bffffffffffffffffffffffff19166001600160601b03929092169182179055336000818152600560208181526040808420868552909152909120600160601b90920290921781556001810189905560028101805460ff191660ff8a1617905590810186905561107386898988612eaf565b600382019081556007820180546001600160a01b038881166001600160a81b031990921691909117909155600880546001818101835560008390528554919092027ff3f7a9fe364faab93b216da50a3214154f22a0a2b415b23a84c8169e8b636ee3810180546bffffffffffffffffffffffff19166001600160601b0390931692831781558654600160601b908190049095169094029091178355908401547ff3f7a9fe364faab93b216da50a3214154f22a0a2b415b23a84c8169e8b636ee482015560028401547ff3f7a9fe364faab93b216da50a3214154f22a0a2b415b23a84c8169e8b636ee58201805460ff191660ff90921691909117905591547ff3f7a9fe364faab93b216da50a3214154f22a0a2b415b23a84c8169e8b636ee683015560048301805484936111cb927ff3f7a9fe364faab93b216da50a3214154f22a0a2b415b23a84c8169e8b636ee79091019161369b565b506005828101549082015560068083015490820180546001600160a01b03199081166001600160a01b03938416179091556007808501805491850180549384169290941691821784555460ff600160a01b918290041693926001600160a81b031916909117908360028111156112435761124361398b565b021790555050600a54604080518b815260ff8b1660208201526001600160601b03909216925033917f0807eacd5bad907205ebefdda3454f0f6cc3a26350e903c00cb8ea89a8d05a7c91015b60405180910390a35050505050505050565b6112aa81612e4b565b6112b5826001612f03565b6112be33612e6c565b3360009081526003602090815260408083206001600160a01b03861684529091529020548181101561130357604051634a1dbc7160e11b815260040160405180910390fd5b3360009081526003602090815260408083206001600160a01b038716845290915281208054849290611336908490614279565b90915550611345905033612f3b565b60405163a9059cbb60e01b8152336004820152602481018390526000906001600160a01b0385169063a9059cbb906044016020604051808303816000875af1158015611395573d6000803e3d6000fd5b505050506040513d601f19601f820116820180604052508101906113b9919061428c565b9050806114085760405162461bcd60e51b8152602060048201526018602482015277141c9bdd1bd8dbdb17d7d51c985b9cd9995c91985a5b195960421b60448201526064015b60405180910390fd5b6040518381526001600160a01b0385169033907f45892a46e6cef329bb642da6d69846d324db43d19008edc141ed82382eda1bee906020015b60405180910390a350505050565b61145833612e6c565b6001600160a01b038316600090815260056020908152604080832060ff861684529091528120906007820154600160a01b900460ff16600281111561149f5761149f61398b565b146114bd57604051630308adab60e11b815260040160405180910390fd5b60078101546001600160a01b038381169116146114ed57604051638d6a7ae360e01b815260040160405180910390fd5b6006810180546001600160a01b031916331790556007810180546001919060ff60a01b1916600160a01b83021790555060018101546040516370a0823160e01b815233600482015281906001600160a01b038516906370a0823190602401602060405180830381865afa158015611568573d6000803e3d6000fd5b505050506040513d601f19601f8201168201806040525081019061158c91906142a9565b10156115ab57604051632c67d2bb60e21b815260040160405180910390fd5b604051636eb1769f60e11b815233600482015230602482015281906001600160a01b0385169063dd62ed3e90604401602060405180830381865afa1580156115f7573d6000803e3d6000fd5b505050506040513d601f19601f8201168201806040525081019061161b91906142a9565b101561163a5760405163664487c960e11b815260040160405180910390fd5b60006116468483612845565b600584015460018501546002860154600787015493945060009361167893929160ff16906001600160a01b0316612eaf565b6116829083614246565b60038581018290558554600160601b90046001600160a01b03166000908152600460205260408120909101805492935083929091906116c2908490614246565b909155505083546001906116e590600160601b90046001600160a01b0316612f6a565b1015611704576040516301401b1b60e61b815260040160405180910390fd5b6040516323b872dd60e01b81526000906001600160a01b038716906323b872dd906117379033908c9089906004016142c2565b6020604051808303816000875af1158015611756573d6000803e3d6000fd5b505050506040513d601f19601f8201168201806040525081019061177a919061428c565b9050806117c45760405162461bcd60e51b8152602060048201526018602482015277141c9bdd1bd8dbdb17d7d51c985b9cd9995c91985a5b195960421b60448201526064016113ff565b60078501805460ff60a01b1916600160a01b1790556040805160ff89168152602081018690526001600160a01b038a169133917f68ef04fb42d7e82507c8eaf02fcc640e240c344b11c6df3e26f182cde14b5df6910161128f565b611827612fab565b6001600160a01b03909116600090815260046020526040902060020155565b61184e612fab565b61185733612e6c565b80518251146118795760405163082e439b60e31b815260040160405180910390fd5b60005b82518160ff16101561196e57818160ff168151811061189d5761189d614057565b602002602001015160016000858460ff16815181106118be576118be614057565b60200260200101516001600160a01b03166001600160a01b0316815260200190815260200160002060006101000a8154816001600160a01b0302191690836001600160a01b031602179055506006838260ff168151811061192157611921614057565b60209081029190910181015182546001810184556000938452919092200180546001600160a01b0319166001600160a01b039092169190911790558061196681614083565b91505061187c565b5060065460405160ff909116815233907f0925d805c5c6b06c1ed914b3b0fbc81bd432609f86b0b87d11c28ce5589eaa559060200160405180910390a25050565b6119b7613006565b6119c0826130ab565b6119ca82826130b3565b5050565b60006119d8613170565b506000805160206143c283398151915290565b600a5460609060016001600160601b039091161015611a1d5760405163239de89960e11b815260040160405180910390fd5b60095460011115611a415760405163239de89960e11b815260040160405180910390fd5b6000805b600954811015611af95760005b600a546001600160601b0390811690821611611af05760006001600160a01b03166005600060098581548110611a8a57611a8a614057565b60009182526020808320909101546001600160a01b03908116845283820194909452604092830182206001600160601b038716835290522054600160601b90041614611ade5782611ada816142e6565b9350505b80611ae8816142ff565b915050611a52565b50600101611a45565b5060008167ffffffffffffffff811115611b1557611b15613806565b604051908082528060200260200182016040528015611b4e57816020015b611b3b61364a565b815260200190600190039081611b335790505b5090506000805b600954811015611dfd5760005b600a546001600160601b0390811690821611611df45760006001600160a01b03166005600060098581548110611b9a57611b9a614057565b60009182526020808320909101546001600160a01b03908116845283820194909452604092830182206001600160601b038716835290522054600160601b90041614611de2576005600060098481548110611bf757611bf7614057565b60009182526020808320909101546001600160a01b03908116845283820194909452604092830182206001600160601b03808716845290825283832084516101408101865281549283168152600160601b90920490951681830152600185015481850152600285015460ff1660608201526003850154608082015260048501805485518185028101850190965280865291959460a0870194909391929184015b82821015611d4d5760008481526020908190206040805160e081018252600786029092018054835260018101546001600160a01b03908116948401949094526002808201549094169183019190915260038101546060830152600481015460ff9081166080840152600582015460a084015260068201549293919260c0850192911690811115611d2957611d2961398b565b6002811115611d3a57611d3a61398b565b8152505081526020019060010190611c97565b505050908252506005820154602082015260068201546001600160a01b03908116604083015260078301549081166060830152608090910190600160a01b900460ff166002811115611da157611da161398b565b6002811115611db257611db261398b565b81525050848481518110611dc857611dc8614057565b60200260200101819052508280611dde906142e6565b9350505b80611dec816142ff565b915050611b62565b50600101611b55565b50909392505050565b6001600160a01b03821660009081526005602090815260408083206001600160601b0385168452825280832060048101805483518186028101860190945280845260609592949192909184015b82821015611f095760008481526020908190206040805160e081018252600786029092018054835260018101546001600160a01b03908116948401949094526002808201549094169183019190915260038101546060830152600481015460ff9081166080840152600582015460a084015260068201549293919260c0850192911690811115611ee557611ee561398b565b6002811115611ef657611ef661398b565b8152505081526020019060010190611e53565b5050505091505092915050565b611f1e612fab565b611f2860006131b9565b565b6000805b600654811015611fa157600060068281548110611f4d57611f4d614057565b60009182526020808320909101546001600160a01b03878116845260038352604080852091909216808552925290912054909150611f8b8282612845565b611f959085614246565b93505050600101611f2e565b50919050565b60606007805480602002602001604051908101604052809291908181526020018280548015611fff57602002820191906000526020600020905b81546001600160a01b03168152600190910190602001808311611fe1575b5050505050905090565b6001600160a01b0381166000908152600460205260409020805460609190612030906140c9565b80601f016020809104026020016040519081016040528092919081815260200182805461205c906140c9565b80156120a95780601f1061207e576101008083540402835291602001916120a9565b820191906000526020600020905b81548152906001019060200180831161208c57829003601f168201915b50505050509050919050565b6120be81612e4b565b6120c9826001612f03565b6120d233612e6c565b3360009081526003602090815260408083206001600160a01b038616845290915281208054839290612105908490614246565b9091555050600980546001810182556000919091527f6e1540171b6c0c960b71a7020d9f60077f6af931a8bbf590da0223dacf75c7af0180546001600160a01b031916339081179091556040518281526001600160a01b03841691907ff1c0dd7e9b98bbff859029005ef89b127af049cd18df1a8d79f0b7e019911e569060200160405180910390a36040516323b872dd60e01b81526000906001600160a01b038416906323b872dd906121c1903390309087906004016142c2565b6020604051808303816000875af11580156121e0573d6000803e3d6000fd5b505050506040513d601f19601f82011682018060405250810190612204919061428c565b90508061222457604051633ef92ae360e01b815260040160405180910390fd5b505050565b60606006805480602002602001604051908101604052809291908181526020018280548015611fff576020028201919060005260206000209081546001600160a01b03168152600190910190602001808311611fe1575050505050905090565b61229284612e4b565b61229e8360ff16612e4b565b6122a733612e6c565b6001600160a01b03861660009081526005602090815260408083206001600160601b03891684529091528120906007820154600160a01b900460ff1660028111156122f4576122f461398b565b1461231257604051630308adab60e11b815260040160405180910390fd5b6040516370a0823160e01b815233600482015285906001600160a01b038416906370a0823190602401602060405180830381865afa158015612358573d6000803e3d6000fd5b505050506040513d601f19601f8201168201806040525081019061237c91906142a9565b101561239b57604051632c67d2bb60e21b815260040160405180910390fd5b60078101546001600160a01b038381169116146123cb57604051638d6a7ae360e01b815260040160405180910390fd5b60405163095ea7b360e01b8152306004820152602481018690526001600160a01b0383169063095ea7b3906044016020604051808303816000875af1158015612418573d6000803e3d6000fd5b505050506040513d601f19601f8201168201806040525081019061243c919061428c565b50600a5461245b90600160601b90046001600160601b03166001614259565b600a600c6101000a8154816001600160601b0302191690836001600160601b031602179055506124be6040805160e081018252600080825260208201819052918101829052606081018290526080810182905260a081018290529060c082015290565b600a54600160601b90046001600160601b0316815233604082015260ff851660808201526001600160a01b038316602082015260a08101849052600060c0820181905250606081018681526004808401805460018181018355600092835260209283902086516007909302019182559185015181830180546001600160a01b039283166001600160a01b031991821617909155604087015160028085018054929094169190921617909155935160038201556080850151928101805460ff90941660ff1994851617905560a0850151600582015560c0850151600682018054879693959294919392169184908111156125b9576125b961398b565b021790555050604080516001600160a01b0386168152602081018990526001600160601b038a16925033917fdf16db0d27d7635b8d159cc120b79ee1f896448cea3cfbeed50b227cdcb5d07f910161128f565b61261533612e6c565b3360009081526005602090815260408083206001600160601b038616845290915281206007810154909190612653906001600160a01b031684612845565b905060016007830154600160a01b900460ff1660028111156126775761267761398b565b1461269557604051631b582c3360e01b815260040160405180910390fd5b60078201546040516370a0823160e01b81523360048201526001600160a01b0390911690849082906370a0823190602401602060405180830381865afa1580156126e3573d6000803e3d6000fd5b505050506040513d601f19601f8201168201806040525081019061270791906142a9565b101561272657604051632c67d2bb60e21b815260040160405180910390fd5b8183600301541061275057818360030160008282546127459190614279565b9091555061275e9050565b600383018054600090915591505b82600301546000036127805760078301805460ff60a01b1916600160a11b1790555b60068301546040516323b872dd60e01b81526001600160a01b03808416926323b872dd926127b6923392169089906004016142c2565b6020604051808303816000875af11580156127d5573d6000803e3d6000fd5b505050506040513d601f19601f820116820180604052508101906127f9919061428c565b50604080516001600160601b03871681526020810186905233917fe4da8da4d1fb918a46281382df3b2a3b88ac58a0f388dd4766074deaf8442e4d910160405180910390a25050505050565b6001600160a01b03808316600090815260016020526040808220548151633fabe5a360e21b81529151929316918391839163feaf968c9160048082019260a0929091908290030181865afa1580156128a1573d6000803e3d6000fd5b505050506040513d601f19601f820116820180604052508101906128c5919061433f565b505050915050670de0b6b3a7640000846402540be400836128e6919061420d565b6128f0919061420d565b6128fa9190614224565b95945050505050565b61290b612fab565b6001600160a01b038281166000818152600260209081526040808320805460ff1916600190811790915580835281842080549688166001600160a01b031997881681179091556007805492830181559094527fa66cc928b5edb82af9bd49922954155ab7b0942694bea4ce44661d9a8736c6880180549095168417909455925190815233927fb464e46658789693f264c26d1c47c955023e6e3fb4e051ddd23840b7368a6d5e910160405180910390a35050565b6129c833612e6c565b3360009081526005602090815260408083206001600160601b03871684529091528120906007820154600160a01b900460ff166002811115612a0c57612a0c61398b565b14612a2a57604051630308adab60e11b815260040160405180910390fd5b60048101546001600160601b0384161115612a585760405163239de89960e11b815260040160405180910390fd5b600081600401846001600160601b031681548110612a7857612a78614057565b6000918252602082206007909102019150600682015460ff166002811115612aa257612aa261398b565b14612ac057604051633bb6356d60e11b815260040160405180910390fd5b8154600160601b90046001600160a01b03163314612af1576040516322b9d68360e11b815260040160405180910390fd5b60068101805484919060ff19166001836002811115612b1257612b1261398b565b02179055506002836002811115612b2b57612b2b61398b565b03612b4057612b3b82828661322a565b612b6d565b6001836002811115612b5457612b5461398b565b03612b6d57612b6d81600601805460ff19166001179055565b60078201546001600160601b0385169033907fab279fedbdba1d45060b4c9e9bcd25880fd8bb000daf59c9504616277660346290600160a01b900460ff166002811115612bbc57612bbc61398b565b600685015460ff166002811115612bd557612bd561398b565b6040805160ff93841681529290911660208301520160405180910390a35050505050565b612c01612fab565b6001600160a01b038116612c2b57604051631e4fbdf760e01b8152600060048201526024016113ff565b612c34816131b9565b50565b612c3f612fab565b612c4833612e6c565b60005b81518160ff161015612dfa57600060016000848460ff1681518110612c7257612c72614057565b60200260200101516001600160a01b03166001600160a01b0316815260200190815260200160002060006101000a8154816001600160a01b0302191690836001600160a01b0316021790555060005b60065460ff82161015612de757828260ff1681518110612ce357612ce3614057565b60200260200101516001600160a01b031660068260ff1681548110612d0a57612d0a614057565b6000918252602090912001546001600160a01b031603612dd55760068054612d3490600190614279565b81548110612d4457612d44614057565b600091825260209091200154600680546001600160a01b039092169160ff8416908110612d7357612d73614057565b9060005260206000200160006101000a8154816001600160a01b0302191690836001600160a01b031602179055506006805480612db257612db261438f565b600082815260209020810160001990810180546001600160a01b03191690550190555b80612ddf81614083565b915050612cc1565b5080612df281614083565b915050612c4b565b5060065460405160ff909116815233907f0925d805c5c6b06c1ed914b3b0fbc81bd432609f86b0b87d11c28ce5589eaa559060200160405180910390a250565b612e426133fd565b612c3481613446565b60008111612c34576040516351c6e81760e01b815260040160405180910390fd5b6001600160a01b038116600090815260046020526040902060010154600160a01b900460ff16612c345760405163ba7330c360e01b815260040160405180910390fd5b600042851015612ed257604051635ac7b73160e01b815260040160405180910390fd5b6000612ede8386612845565b90506064612eef60ff86168361420d565b612ef99190614224565b9695505050505050565b6001600160a01b03828116600090815260208390526040902054166119ca5760405163335dc1d160e01b815260040160405180910390fd5b6000612f4682612f6a565b905060018110156119ca576040516306142b2f60e41b815260040160405180910390fd5b6000806000612f788461344e565b909250905060006064612f8c60558461420d565b612f969190614224565b9050826128f0670de0b6b3a76400008361420d565b33612fdd7f9016d09d72d40fdae2fd8ceac6b6234c7706214fd39c1cd1e609a0528c199300546001600160a01b031690565b6001600160a01b031614611f285760405163118cdaa760e01b81523360048201526024016113ff565b306001600160a01b037f000000000000000000000000000000000000000000000000000000000000000016148061308d57507f00000000000000000000000000000000000000000000000000000000000000006001600160a01b03166130816000805160206143c2833981519152546001600160a01b031690565b6001600160a01b031614155b15611f285760405163703e46dd60e11b815260040160405180910390fd5b612c34612fab565b816001600160a01b03166352d1902d6040518163ffffffff1660e01b8152600401602060405180830381865afa92505050801561310d575060408051601f3d908101601f1916820190925261310a918101906142a9565b60015b61313557604051634c9c8ce360e01b81526001600160a01b03831660048201526024016113ff565b6000805160206143c2833981519152811461316657604051632a87526960e21b8152600481018290526024016113ff565b612224838361347b565b306001600160a01b037f00000000000000000000000000000000000000000000000000000000000000001614611f285760405163703e46dd60e11b815260040160405180910390fd5b7f9016d09d72d40fdae2fd8ceac6b6234c7706214fd39c1cd1e609a0528c19930080546001600160a01b031981166001600160a01b03848116918217845560405192169182907f8be0079c531659141344cd1fd0a4f28419497f9722a3daafe3b4186f6b6457e090600090a3505050565b600282810154600685810180546001600160a01b0319166001600160a01b0393841617905560078601805460ff60a01b1916600160a01b1790558401805460ff1916909217909155600583015460038401546004850154600186015460009461329994939260ff169116612eaf565b60038581018290558554600160601b90046001600160a01b03166000908152600460205260408120909101805492935083929091906132d9908490614246565b909155505083546001906132fc90600160601b90046001600160a01b0316612f6a565b101561331b576040516301401b1b60e61b815260040160405180910390fd5b60018301546002840154855460038601546040516323b872dd60e01b81526001600160a01b03948516946323b872dd946133679490821693600160601b909104909116916004016142c2565b6020604051808303816000875af1158015613386573d6000803e3d6000fd5b505050506040513d601f19601f820116820180604052508101906133aa919061428c565b50600383015484546040516001600160601b0385168152600160601b9091046001600160a01b0316907fb025ffaea53389db0d078526e665be7950273096aa78f9163da82946accaa59990602001611441565b7ff0c57e16840df040f15088dc2f81fe391c3923bec73e23a9662efc9c229c6a0054600160401b900460ff16611f2857604051631afcd79f60e31b815260040160405180910390fd5b612c016133fd565b6001600160a01b0381166000908152600460205260408120600301549061347483611f2a565b9050915091565b613484826134d1565b6040516001600160a01b038316907fbc7cd75a20ee27fd9adebab32041f755214dbc6bffa90cc0225b39da2e5c2d3b90600090a28051156134c9576122248282613536565b6119ca6135a3565b806001600160a01b03163b60000361350757604051634c9c8ce360e01b81526001600160a01b03821660048201526024016113ff565b6000805160206143c283398151915280546001600160a01b0319166001600160a01b0392909216919091179055565b6060600080846001600160a01b03168460405161355391906143a5565b600060405180830381855af49150503d806000811461358e576040519150601f19603f3d011682016040523d82523d6000602084013e613593565b606091505b50915091506128fa8583836135c2565b3415611f285760405163b398979f60e01b815260040160405180910390fd5b6060826135d7576135d282613621565b61361a565b81511580156135ee57506001600160a01b0384163b155b1561361757604051639996b31560e01b81526001600160a01b03851660048201526024016113ff565b50805b9392505050565b8051156136315780518082602001fd5b604051630a12f52160e11b815260040160405180910390fd5b604080516101408101825260008082526020820181905291810182905260608082018390526080820183905260a082015260c0810182905260e0810182905261010081018290529061012082015290565b82805482825590600052602060002090600702810192821561377b5760005260206000209160070282015b8281111561377b578254825560018084015481840180546001600160a01b03199081166001600160a01b03938416179091556002808701548187018054909316931692909217905560038086015490850155600480860154908501805460ff1990811660ff938416179091556005808801549087015560068088015490870180548996899693909516949193169184908111156137655761376561398b565b02179055505050916007019190600701906136c6565b5061378792915061378b565b5090565b5b808211156137875760008082556001820180546001600160a01b031990811690915560028301805490911690556003820181905560048201805460ff199081169091556005830191909155600682018054909116905560070161378c565b80356001600160a01b038116811461380157600080fd5b919050565b634e487b7160e01b600052604160045260246000fd5b604051601f8201601f1916810167ffffffffffffffff8111828210171561384557613845613806565b604052919050565b600082601f83011261385e57600080fd5b8135602067ffffffffffffffff82111561387a5761387a613806565b8160051b61388982820161381c565b92835284810182019282810190878511156138a357600080fd5b83870192505b848310156138c9576138ba836137ea565b825291830191908301906138a9565b979650505050505050565b600080600080608085870312156138ea57600080fd5b6138f3856137ea565b9350602085013567ffffffffffffffff8082111561391057600080fd5b61391c8883890161384d565b9450604087013591508082111561393257600080fd5b5061393f8782880161384d565b92505061394e606086016137ea565b905092959194509250565b80356001600160601b038116811461380157600080fd5b60006020828403121561398257600080fd5b61361a82613959565b634e487b7160e01b600052602160045260246000fd5b60038110612c3457634e487b7160e01b600052602160045260246000fd5b805182526000602082015160018060a01b03808216602086015280604085015116604086015250506060820151606084015260ff608083015116608084015260a082015160a084015260c0820151613a16816139a1565b60c0840152505060e00190565b60008151808452602080850194506020840160005b83811015613a5957613a4b8783516139bf565b965090820190600101613a38565b509495945050505050565b613a6d816139a1565b9052565b80516001600160601b0316825260006101406020830151613a9d60208601826001600160a01b03169052565b50604083015160408501526060830151613abc606086018260ff169052565b506080830151608085015260a08301518160a0860152613ade82860182613a23565b91505060c083015160c085015260e0830151613b0560e08601826001600160a01b03169052565b50610100838101516001600160a01b03169085015261012080840151613b2d82870182613a64565b5090949350505050565b60208152600061361a6020830184613a71565b600067ffffffffffffffff831115613b6457613b64613806565b613b77601f8401601f191660200161381c565b9050828152838383011115613b8b57600080fd5b828260208301376000602084830101529392505050565b8015158114612c3457600080fd5b600080600060608486031215613bc557600080fd5b613bce846137ea565b9250602084013567ffffffffffffffff811115613bea57600080fd5b8401601f81018613613bfb57600080fd5b613c0a86823560208401613b4a565b9250506040840135613c1b81613ba2565b809150509250925092565b60008060408385031215613c3957600080fd5b613c42836137ea565b9150613c5060208401613959565b90509250929050565b803560ff8116811461380157600080fd5b60008060008060808587031215613c8057600080fd5b84359350613c9060208601613c59565b92506040850135915061394e606086016137ea565b60008060408385031215613cb857600080fd5b613cc1836137ea565b946020939093013593505050565b600080600060608486031215613ce457600080fd5b613ced846137ea565b9250613cfb60208501613c59565b9150613d09604085016137ea565b90509250925092565b60008060408385031215613d2557600080fd5b823567ffffffffffffffff80821115613d3d57600080fd5b613d498683870161384d565b93506020850135915080821115613d5f57600080fd5b50613d6c8582860161384d565b9150509250929050565b60008060408385031215613d8957600080fd5b613d92836137ea565b9150602083013567ffffffffffffffff811115613dae57600080fd5b8301601f81018513613dbf57600080fd5b613d6c85823560208401613b4a565b60008060408385031215613de157600080fd5b613dea836137ea565b9150613c50602084016137ea565b600060208083016020845280855180835260408601915060408160051b87010192506020870160005b82811015613e4f57603f19888603018452613e3d858351613a71565b94509285019290850190600101613e21565b5092979650505050505050565b6020808252825182820181905260009190848201906040850190845b81811015613e9957613e8b8385516139bf565b938501939250600101613e78565b50909695505050505050565b600060208284031215613eb757600080fd5b61361a826137ea565b6020808252825182820181905260009190848201906040850190845b81811015613e995783516001600160a01b031683529284019291840191600101613edc565b60005b83811015613f1c578181015183820152602001613f04565b50506000910152565b6020815260008251806020840152613f44816040850160208701613f01565b601f01601f19169190910160400192915050565b60008060008060008060c08789031215613f7157600080fd5b613f7a876137ea565b9550613f8860208801613959565b945060408701359350613f9d60608801613c59565b925060808701359150613fb260a088016137ea565b90509295509295509295565b60008060408385031215613fd157600080fd5b613cc183613959565b600080600060608486031215613fef57600080fd5b613ff884613959565b925061400660208501613959565b9150604084013560038110613c1b57600080fd5b60006020828403121561402c57600080fd5b813567ffffffffffffffff81111561404357600080fd5b61404f8482850161384d565b949350505050565b634e487b7160e01b600052603260045260246000fd5b634e487b7160e01b600052601160045260246000fd5b600060ff821660ff81036140995761409961406d565b60010192915050565b6001600160601b038281168282160390808211156140c2576140c261406d565b5092915050565b600181811c908216806140dd57607f821691505b602082108103611fa157634e487b7160e01b600052602260045260246000fd5b601f821115612224576000816000526020600020601f850160051c810160208610156141265750805b601f850160051c820191505b8181101561414557828155600101614132565b505050505050565b815167ffffffffffffffff81111561416757614167613806565b61417b8161417584546140c9565b846140fd565b602080601f8311600181146141b057600084156141985750858301515b600019600386901b1c1916600185901b178555614145565b600085815260208120601f198616915b828110156141df578886015182559484019460019091019084016141c0565b50858210156141fd5787850151600019600388901b60f8161c191681555b5050505050600190811b01905550565b8082028115828204841417610efe57610efe61406d565b60008261424157634e487b7160e01b600052601260045260246000fd5b500490565b80820180821115610efe57610efe61406d565b6001600160601b038181168382160190808211156140c2576140c261406d565b81810381811115610efe57610efe61406d565b60006020828403121561429e57600080fd5b815161361a81613ba2565b6000602082840312156142bb57600080fd5b5051919050565b6001600160a01b039384168152919092166020820152604081019190915260600190565b6000600182016142f8576142f861406d565b5060010190565b60006001600160601b0380831681810361431b5761431b61406d565b6001019392505050565b805169ffffffffffffffffffff8116811461380157600080fd5b600080600080600060a0868803121561435757600080fd5b61436086614325565b945060208601519350604086015192506060860151915061438360808701614325565b90509295509295909350565b634e487b7160e01b600052603160045260246000fd5b600082516143b7818460208701613f01565b919091019291505056fe360894a13ba1a3210667c828492db98dca3e2076cc3735a920a3ca505d382bbca264697066735822122071f3eadab4e5013f0c1bfec4be11450db30e67d5db1f32eab81e59dd164fcbcd64736f6c63430008180033",
    "linkReferences": {}
  },
  "methodIdentifiers": {
    "UPGRADE_INTERFACE_VERSION()": "ad3cb1cc",
    "addCollateralTokens(address[],address[])": "480d4c87",
    "addLoanableToken(address,address)": "eb57a3f5",
    "createLendingRequest(uint256,uint8,uint256,address)": "1308aedc",
    "depositCollateral(address,uint256)": "a5d5db0c",
    "getAccountCollateralValue(address)": "7d1a4450",
    "getAllCollateralToken()": "b202dc20",
    "getAllOfferForUser(address,uint96)": "58944730",
    "getAllRequest()": "545569ba",
    "getLoanableAssets()": "86f5483f",
    "getRequestById(uint96)": "02727e34",
    "getUsdValue(address,uint256)": "c660d112",
    "getUserEmail(address)": "9480e948",
    "getUserRequest(address,uint96)": "1143e606",
    "get_gitCoinPoint(address)": "f2cc0ba5",
    "gets_addressToCollateralDeposited(address,address)": "527ed126",
    "initialize(address,address[],address[],address)": "000689e0",
    "isVerified(address)": "b9209e33",
    "makeLendingOffer(address,uint96,uint256,uint8,uint256,address)": "bf343943",
    "owner()": "8da5cb5b",
    "proxiableUUID()": "52d1902d",
    "removeCollateralTokens(address[])": "f9f22ec2",
    "renounceOwnership()": "715018a6",
    "repayLoan(uint96,uint256)": "c147a892",
    "respondToLendingOffer(uint96,uint96,uint8)": "ecb0fe38",
    "serviceRequest(address,uint8,address)": "41239496",
    "transferOwnership(address)": "f2fde38b",
    "updateEmail(address,string,bool)": "065a1f87",
    "updateGPScore(address,uint256)": "42e292c1",
    "upgradeToAndCall(address,bytes)": "4f1ef286",
    "withdrawCollateral(address,uint256)": "350c35e9"
  },
  "id": 50
}